:100000000C942A000C9447000C9447000C94470071
:100010000C9447000C9447000C9447000C94470044
:100020000C9447000C9447000C94F9070C94AD070E
:100030000C9447000C9447000C9447000C94470024
:100040000C9447000C9447000C9447000C94470014
:100050000C94470011241FBECFE5D4E0DEBFCDBF16
:1000600011E0A0E6B0E0ECEAFEE302C005900D92DC
:10007000AC33B107D9F711E0ACE3B1E001C01D9298
:10008000A934B107E1F70E94C41A0C94541F0C94D0
:100090000000EF92FF920F931F937B018C0120E0F1
:1000A00030E040E05FE40E94F50388238CF0C80153
:1000B000B70120E030E040E05FE40E94C1010E940F
:1000C00055049B01AC01205030404040504806C0D0
:1000D000C801B7010E9455049B01AC01B901CA01D6
:1000E0001F910F91FF90EF900895A0E0B0E0EBE733
:1000F000F0E00C941D1FDC012B01FA019C91923061
:1001000008F439C1EB018881823008F433C194309E
:1001100069F4843009F02FC111969C91119789815F
:10012000981709F428C1ABE1B1E025C1843009F486
:1001300021C18230A9F4923009F01DC19A01AD01AC
:1001400088E0EA010990AE01E90109929E0181501F
:10015000C1F7E201898111969C918923818308C1AD
:10016000923009F407C112962D903C901397EB0141
:100170008A819B811496AD90BD90CD90DC901797AD
:10018000EC80FD800E811F819101281B390BB90184
:1001900037FF04C066277727621B730B6032710537
:1001A0000CF061C0121613066CF537014801062EDB
:1001B00004C096948794779467940A94D2F721E0C8
:1001C00030E040E050E004C0220F331F441F551FB1
:1001D0006A95D2F721503040404050402E213F21B7
:1001E00040235123211531054105510521F021E01E
:1001F00030E040E050E079018A01E628F72808293C
:1002000019293CC0232BD1F1260E371E350146019A
:10021000062E04C096948794779467940A94D2F734
:1002200021E030E040E050E004C0220F331F441FC3
:10023000551F6A95D2F721503040404050402A2146
:100240003B214C215D21211531054105510521F04E
:1002500021E030E040E050E059016A01A628B728CB
:10026000C828D9280BC0821593052CF01C01AA249C
:10027000BB24650103C0EE24FF24870111969C91E5
:10028000D20111968C91981709F445C0992339F041
:10029000A80197012A193B094C095D0906C0A6016E
:1002A00095012E193F09400B510B57FD08C01182D3
:1002B0003382228224833583468357831DC081E0A5
:1002C00081833382228288279927DC01821B930B4A
:1002D000A40BB50B84839583A683B7830DC0220F2F
:1002E000331F441F551F24833583468357838281E0
:1002F000938101979383828324813581468157813D
:10030000DA01C9010197A109B1098F5F9F4FAF4F72
:10031000BF4328F30BC0918333822282EA0CFB1C7B
:100320000C1D1D1DE482F5820683178383E0808304
:10033000248135814681578157FF1AC0C901AA27F8
:1003400097FDA095BA2F81709070A070B0705695EF
:10035000479537952795822B932BA42BB52B848318
:100360009583A683B7838281938101969383828349
:10037000DF0101C0D201CD01CDB7DEB7E2E10C94BF
:10038000391FA0E2B0E0E7ECF1E00C94291F69838B
:100390007A838B839C832D833E834F835887E9E048
:1003A000EE2EF12CEC0EFD1ECE010196B7010E943F
:1003B0007E058E010F5E1F4FCE010596B8010E948B
:1003C0007E058A8991E089278A8BC701B801AE0131
:1003D000475E5F4F0E9475000E94A904A096E6E068
:1003E0000C94451FA0E2B0E0E8EFF1E00C94291F67
:1003F00069837A838B839C832D833E834F835887C5
:10040000F9E0EF2EF12CEC0EFD1ECE010196B701A6
:100410000E947E058E010F5E1F4FCE010596B8012A
:100420000E947E05C701B801AE01475E5F4F0E9482
:1004300075000E94A904A096E6E00C94451FA0E276
:10044000B0E0E5E2F2E00C941D1F69837A838B83B0
:100450009C832D833E834F835887CE010196BE0136
:10046000675F7F4F0E947E05CE010596BE016F5EDD
:100470007F4F0E947E059985923088F0898982306D
:10048000C8F0943019F4823051F404C0843029F457
:10049000923081F48BE191E0C6C0923049F420E0C3
:1004A0009A858A89981321E02A87CE010996BBC0D4
:1004B000823049F420E09A858A89981321E02A8BBA
:1004C000CE014196B0C02D843E844F8458886D88FB
:1004D0007E888F88988CEE24FF248701AA24BB2471
:1004E000650140E050E060E070E0E0E0F0E0C10174
:1004F00081709070892BE9F0E60CF71C081D191D1E
:100500009A01AB012A0D3B1D4C1D5D1D80E090E062
:10051000A0E0B0E0E614F7040805190520F481E036
:1005200090E0A0E0B0E0BA01A901480F591F6A1F8E
:100530007B1FAA0CBB1CCC1CDD1C97FE08C081E0F5
:1005400090E0A0E0B0E0A82AB92ACA2ADB2A3196B6
:10055000E032F10549F0660C771C881C991C569412
:10056000479437942794C3CFFA85EA892B893C892D
:100570008B859C85280F391F2E5F3F4F17C0CA01FE
:1005800081709070892B61F016950795F794E79428
:1005900080E090E0A0E0B0E8E82AF92A0A2B1B2BC3
:1005A00076956795579547952F5F3F4F77FDE7CF36
:1005B0000CC0440F551F661F771F17FD4160EE0CDE
:1005C000FF1C001F111F21503040403090E05907A0
:1005D00090E0690790E4790760F32B8F3C8FDB0193
:1005E000CA018F779070A070B07080349105A1051A
:1005F000B10561F447FD0AC0E114F10401051105DC
:1006000029F0405C5F4F6F4F7F4F40781A8EFE1786
:1006100011F081E08A8F4D8F5E8F6F8F78A383E01A
:10062000898FCE0149960E94A904A096E2E10C941C
:10063000391FA8E1B0E0EFE1F3E00C94251F6983D6
:100640007A838B839C832D833E834F835887B9E0C5
:10065000EB2EF12CEC0EFD1ECE010196B7010E948F
:100660007E058E010F5E1F4FCE010596B8010E94D8
:100670007E052985223008F47EC03989323010F495
:10068000B8017CC08A859A8989278A87243011F02D
:10069000223031F4231709F06EC06BE171E06EC0B7
:1006A000343039F41D861E861F86188A1C861B86E8
:1006B00004C0323021F484E08987B7015FC02B8504
:1006C0003C858B899C89281B390B3C872B87ED84C3
:1006D000FE840F851889AD88BE88CF88D88CEA142F
:1006E000FB040C051D0540F4EE0CFF1C001F111F40
:1006F000215030403C872B8720E030E040E050E044
:1007000080E090E0A0E0B0E460E070E0EA14FB0478
:100710000C051D0540F0282B392B4A2B5B2BEA18C2
:10072000FB080C091D09B695A79597958795EE0CC2
:10073000FF1C001F111F6F5F7F4F6F31710531F775
:10074000DA01C9018F779070A070B0708034910584
:10075000A105B10561F427FD0AC0E114F10401050A
:10076000110529F0205C3F4F4F4F5F4F20782D87B8
:100770003E874F87588BBE01675F7F4FCB010E943A
:10078000A9046896EAE00C94411FA8E1B0E0EBEC04
:10079000F3E00C94291F69837A838B839C832D83D8
:1007A0003E834F83588789E0E82EF12CEC0EFD1E26
:1007B000CE010196B7010E947E058E010F5E1F4F8C
:1007C000CE010596B8010E947E058985823040F0F1
:1007D0008989823028F0C701B8010E94F60501C05E
:1007E0008FEF6896E6E00C94451FA8E1B0E0EBEFD0
:1007F000F3E00C94291F69837A838B839C832D8378
:100800003E834F83588789E0E82EF12CEC0EFD1EC5
:10081000CE010196B7010E947E058E010F5E1F4F2B
:10082000CE010596B8010E947E058985823040F090
:100830008989823028F0C701B8010E94F60501C0FD
:100840008FEF6896E6E00C94451FA8E1B0E0EBE27C
:10085000F4E00C94291F69837A838B839C832D8316
:100860003E834F83588789E0E82EF12CEC0EFD1E65
:10087000CE010196B7010E947E058E010F5E1F4FCB
:10088000CE010596B8010E947E058985823040F030
:100890008989823028F0C701B8010E94F60501C09D
:1008A00081E06896E6E00C94451FACE0B0E0EBE533
:1008B000F4E00C942D1F69837A838B839C83CE0193
:1008C0000196BE016B5F7F4F0E947E058D81823055
:1008D00061F1823050F1843021F48E81882351F10E
:1008E0002EC02F81388537FD20C06E812F31310514
:1008F0001CF06623F9F023C08EE190E0821B930B7D
:1009000029853A854B855C8504C056954795379572
:1009100027958A95D2F76623B1F05095409530958A
:1009200021953F4F4F4F5F4F0EC020E030E040E039
:1009300050E009C02FEF3FEF4FEF5FE704C020E02A
:1009400030E040E050E8B901CA012C96E2E00C9496
:10095000491FDF92EF92FF920F931F93FC01E480F7
:10096000F58006811781D1808081823048F480E053
:1009700090E0A0E1B0E0E82AF92A0A2B1B2BA5C0E1
:10098000843009F49FC0823021F4EE24FF248701D3
:1009900005C0E114F1040105110519F4E0E0F0E0EF
:1009A00096C0628173819FEF623879070CF05BC05B
:1009B00022E83FEF261B370B2A3131052CF020E0CF
:1009C00030E040E050E02AC0B801A701022E04C088
:1009D00076956795579547950A94D2F781E090E010
:1009E000A0E0B0E004C0880F991FAA1FBB1F2A9582
:1009F000D2F70197A109B1098E219F21A023B1232C
:100A00000097A105B10521F081E090E0A0E0B0E001
:100A10009A01AB01282B392B4A2B5B2BDA01C90138
:100A20008F779070A070B07080349105A105B105EA
:100A300039F427FF09C0205C3F4F4F4F5F4F04C080
:100A4000215C3F4F4F4F5F4FE0E0F0E02030A0E0EF
:100A50003A07A0E04A07A0E45A0710F0E1E0F0E00E
:100A600079018A0127C06038710564F5FB01E158FE
:100A7000FF4FD801C7018F779070A070B07080349D
:100A80009105A105B10539F4E7FE0DC080E490E0C1
:100A9000A0E0B0E004C08FE390E0A0E0B0E0E80E9A
:100AA000F91E0A1F1B1F17FF05C016950795F7941F
:100AB000E794319687E016950795F794E7948A9521
:100AC000D1F705C0EE24FF248701EFEFF0E06E2F91
:100AD000679566276795902F9F77D794DD24D794E5
:100AE0008E2F8695492F462B582F5D29B701CA01B5
:100AF0001F910F91FF90EF90DF900895FC01DB01B3
:100B0000408151812281622F6F7770E0221F22275E
:100B1000221F9381892F880F822B282F30E0991F65
:100B20009927991F11969C93119721153105A9F5C5
:100B3000411551056105710511F482E037C082E865
:100B40009FEF13969C938E9312979A01AB0167E0E7
:100B5000220F331F441F551F6A95D1F783E08C93F2
:100B60000DC0220F331F441F551F12968D919C916B
:100B70001397019713969C938E931297203080E0E1
:100B8000380780E0480780E4580758F314962D93FF
:100B90003D934D935C93179708952F3F310579F45A
:100BA000411551056105710519F484E08C93089590
:100BB00064FF03C081E08C9312C01C9210C02F57B9
:100BC000304013963C932E93129783E08C9387E0EA
:100BD000440F551F661F771F8A95D1F770641496CE
:100BE0004D935D936D937C93179708951F93DC014C
:100BF000FB019C91923008F447C08081823008F458
:100C000043C0943051F411961C91843099F5818140
:100C1000682F70E0611B71093FC0843021F0923071
:100C200031F48230B9F18181882389F12DC0119688
:100C30001C9111978230F1F081811817D9F4129626
:100C40002D913C911397828193818217930794F0A1
:100C500028173907BCF014968D919D910D90BC9189
:100C6000A02D2481358146815781281739074A07ED
:100C70005B0718F4112341F00AC082179307A407F9
:100C8000B50740F4112319F061E070E005C06FEF83
:100C90007FEF02C060E070E0CB011F910895DF9309
:100CA000CF930F92CDB7DEB71982A1E4B0E0E1E4B3
:100CB000F0E0808181608C93A1E4B0E0E1E4F0E0B9
:100CC000808182608C93A1E4B0E0E1E4F0E0808177
:100CD00084608C9389810F90CF91DF910895DF9389
:100CE000CF930F92CDB7DEB71982A1E4B0E0E1E473
:100CF000F0E0808188618C93E1E4F0E010828981EA
:100D00000F90CF91DF910895DF93CF930F92CDB7DE
:100D1000DEB71982A3E5B0E0E3E5F0E0808188600A
:100D20008C93A3E5B0E0E3E5F0E0808180648C93F0
:100D3000A3E5B0E0E3E5F0E0808180628C93A3E579
:100D4000B0E0E3E5F0E080818F7E8C93A3E5B0E036
:100D5000E3E5F0E080818E7F8C93A3E5B0E0E3E5EE
:100D6000F0E0808182608C93A3E5B0E0E3E5F0E001
:100D700080818B7F8C9389810F90CF91DF91089533
:100D8000DF93CF930F92CDB7DEB71982AFE4B0E017
:100D9000EFE4F0E080818E7F8C93AFE4B0E0EFE48D
:100DA000F0E0808182608C93AEE4B0E0EEE4F0E0AD
:100DB000808188608C93AEE4B0E0EEE4F0E0808166
:100DC00080618C93AFE4B0E0EFE4F0E080818F7B52
:100DD0008C93AFE4B0E0EFE4F0E0808180688C9326
:100DE000E6E4F0E08FE19EE491838083AEE4B0E03E
:100DF000EEE4F0E080818E7F8C93AEE4B0E0EEE430
:100E0000F0E0808182608C93AEE4B0E0EEE4F0E04C
:100E100080818B7F8C9389810F90CF91DF91089592
:100E2000DF93CF9300D00F92CDB7DEB79B838A8339
:100E300019828A819B81009739F08A819B819093E6
:100E40003D0180933C0102C081E0898389810F903C
:100E50000F900F90CF91DF910895DF93CF9300D043
:100E60000F92CDB7DEB79B838A8319828A819B81DB
:100E7000009739F08A819B8190933F0180933E01D6
:100E800002C081E0898389810F900F900F90CF91EC
:100E9000DF910895DF93CF9300D0CDB7DEB78A837B
:100EA0001982ECE5F0E08A81808389810F900F90B0
:100EB000CF91DF910895DF93CF9300D00F92CDB7FC
:100EC000DEB79B838A831982E6E4F0E08A819B8106
:100ED0009183808389810F900F900F90CF91DF9144
:100EE00008950F931F93DF93CF9300D00F92CDB748
:100EF000DEB79B838A8319828A819B81853B91051A
:100F000008F50AE410E08A819B81CC01A0E0B0E002
:100F100028EE33E040E050E0BC01CD010E94DC1E31
:100F2000DC01CB0124EB30E040E050E0BC01CD011E
:100F30000E94FB1EDA01C90189519C4FF80191837F
:100F4000808302C081E0898389810F900F900F9088
:100F5000CF91DF911F910F9108951F920F920FB6BD
:100F60000F9211242F933F934F935F936F937F932F
:100F70008F939F93AF93BF93EF93FF93DF93CF93A1
:100F8000CDB7DEB7809140019091410101969093D9
:100F900041018093400180914001909141012FE0F7
:100FA0008334920799F4E2E5F0E080EC80831092BC
:100FB00041011092400180913C0190913D010097C8
:100FC00029F0E0913C01F0913D010995CF91DF912D
:100FD000FF91EF91BF91AF919F918F917F916F9111
:100FE0005F914F913F912F910F900FBE0F901F90E7
:100FF00018951F920F920FB60F9211242F933F93C3
:101000004F935F936F937F938F939F93AF93BF9310
:10101000EF93FF93DF93CF93CDB7DEB7809142017B
:1010200090914301019690934301809342018091F6
:1010300042019091430127E28031920779F41092A6
:1010400043011092420180913E0190913F0100972F
:1010500029F0E0913E01F0913F010995CF91DF9198
:10106000FF91EF91BF91AF919F918F917F916F9180
:101070005F914F913F912F910F900FBE0F901F9056
:101080001895DF93CF93CDB7DEB7AFE5B0E0EFE5CE
:10109000F0E0808180688C9380E0CF91DF910895AB
:1010A000DF93CF93CDB7DEB7AFE5B0E0EFE5F0E08B
:1010B00080818F778C9380E0CF91DF910895DF93CB
:1010C000CF93CDB7DEB7EAE3F0E081E08083E7E3DA
:1010D000F0E087E28083E4E3F0E01082E1E3F0E017
:1010E0008FEF8083EBE3F0E01082E8E3F0E0108222
:1010F000E5E3F0E01082E2E3F0E01082CF91DF91CF
:101100000895DF93CF93CDB7DEB72E970FB6F8943F
:10111000DEBF0FBECDBF8A836B834C8319828A8169
:10112000843008F015C18B81883008F011C18C81A2
:10113000882321F08C81813009F00AC18A81282F0F
:1011400030E03E872D878D859E858130910509F49D
:1011500051C02D853E85223031052CF48D859E852C
:10116000009771F0F7C02D853E852230310509F4D6
:101170007BC08D859E858330910509F4AFC0EAC0A0
:101180008C81282F30E03C872B878B859C850097AE
:10119000C9F02B853C852130310549F5AAE3B0E043
:1011A000EAE3F0E08081482F8B81282F30E081E056
:1011B00090E0022E02C0880F991F0A94E2F7842B58
:1011C0008C93C8C0AAE3B0E0EAE3F0E08081482F46
:1011D0008B81282F30E081E090E0022E02C0880F42
:1011E000991F0A94E2F7809584238C93B3C081E021
:1011F0008983B0C08C81282F30E03A872987898580
:101200009A850097C9F029853A852130310549F53D
:10121000A7E3B0E0E7E3F0E08081482F8B81282F3F
:1012200030E081E090E0022E02C0880F991F0A94FE
:10123000E2F7842B8C938EC0A7E3B0E0E7E3F0E005
:101240008081482F8B81282F30E081E090E0022EB2
:1012500002C0880F991F0A94E2F7809584238C932B
:1012600079C081E0898376C08C81282F30E038876F
:101270002F838F8198850097C9F02F813885213081
:10128000310549F5A4E3B0E0E4E3F0E08081482FC4
:101290008B81282F30E081E090E0022E02C0880F81
:1012A000991F0A94E2F7842B8C9354C0A4E3B0E016
:1012B000E4E3F0E08081482F8B81282F30E081E04B
:1012C00090E0022E02C0880F991F0A94E2F78095E1
:1012D00084238C933FC081E089833CC08C81282F7C
:1012E00030E03E832D838D819E810097C9F02D8152
:1012F0003E812130310549F5A1E3B0E0E1E3F0E0C2
:101300008081482F8B81282F30E081E090E0022EF1
:1013100002C0880F991F0A94E2F7842B8C931AC09D
:10132000A1E3B0E0E1E3F0E08081482F8B81282F3A
:1013300030E081E090E0022E02C0880F991F0A94ED
:10134000E2F7809584238C9305C081E0898302C0F5
:1013500081E0898389812E960FB6F894DEBF0FBE97
:10136000CDBFCF91DF910895DF93CF93CDB7DEB797
:101370002E970FB6F894DEBF0FBECDBF8A836B8366
:101380004C8319828A81843008F015C18B818830A2
:1013900008F011C18C81882321F08C81813009F003
:1013A0000AC18A81282F30E03E872D878D859E8552
:1013B0008130910509F451C02D853E8522303105DB
:1013C0002CF48D859E85009771F0F7C02D853E85A4
:1013D0002230310509F47BC08D859E8583309105CF
:1013E00009F4AFC0EAC08C81282F30E03C872B87FE
:1013F0008B859C850097C9F02B853C852130310574
:1014000049F5ABE3B0E0EBE3F0E08081482F8B815E
:10141000282F30E081E090E0022E02C0880F991F53
:101420000A94E2F7842B8C93C8C0ABE3B0E0EBE303
:10143000F0E08081482F8B81282F30E081E090E020
:10144000022E02C0880F991F0A94E2F78095842328
:101450008C93B3C081E08983B0C08C81282F30E0A9
:101460003A87298789859A850097C9F029853A8521
:101470002130310549F5A8E3B0E0E8E3F0E08081F0
:10148000482F8B81282F30E081E090E0022E02C0AF
:10149000880F991F0A94E2F7842B8C938EC0A8E3DF
:1014A000B0E0E8E3F0E08081482F8B81282F30E026
:1014B00081E090E0022E02C0880F991F0A94E2F7A3
:1014C000809584238C9379C081E0898376C08C8158
:1014D000282F30E038872F838F8198850097C9F0B7
:1014E0002F8138852130310549F5A5E3B0E0E5E3EA
:1014F000F0E08081482F8B81282F30E081E090E060
:10150000022E02C0880F991F0A94E2F7842B8C9355
:1015100054C0A5E3B0E0E5E3F0E08081482F8B8183
:10152000282F30E081E090E0022E02C0880F991F42
:101530000A94E2F7809584238C933FC081E08983ED
:101540003CC08C81282F30E03E832D838D819E818D
:101550000097C9F02D813E812130310549F5A2E384
:10156000B0E0E2E3F0E08081482F8B81282F30E06B
:1015700081E090E0022E02C0880F991F0A94E2F7E2
:10158000842B8C931AC0A2E3B0E0E2E3F0E0808108
:10159000482F8B81282F30E081E090E0022E02C09E
:1015A000880F991F0A94E2F7809584238C9305C0D5
:1015B00081E0898302C081E0898389812E960FB6FC
:1015C000F894DEBF0FBECDBFCF91DF910895DF93BA
:1015D000CF93CDB7DEB728970FB6F894DEBF0FBE16
:1015E000CDBF8B836C835E834D831A828B81843065
:1015F00008F09EC08C81883008F09AC08D819E8151
:10160000009709F495C08B81282F30E038872F830D
:101610008F81988581309105A1F12F813885223005
:1016200031052CF48F819885009771F083C02F814C
:1016300038852230310509F441C08F819885833087
:10164000910509F458C076C0E9E3F0E08081482FA5
:101650008C81282F30E081E090E0022E02C0880FBC
:10166000991F0A94E2F7842389838981882321F4CE
:10167000ED81FE8110825EC0ED81FE8181E080837C
:1016800059C0E6E3F0E08081482F8C81282F30E0BC
:1016900081E090E0022E02C0880F991F0A94E2F7C1
:1016A000842389838981882321F4ED81FE8110823E
:1016B00041C0ED81FE8181E080833CC0E3E3F0E046
:1016C0008081482F8C81282F30E081E090E0022E2D
:1016D00002C0880F991F0A94E2F7842389838981C5
:1016E000882321F4ED81FE81108224C0ED81FE81EA
:1016F00081E080831FC0E0E3F0E08081482F8C818F
:10170000282F30E081E090E0022E02C0880F991F60
:101710000A94E2F7842389838981882321F4ED8167
:10172000FE81108207C0ED81FE8181E0808302C0CE
:1017300081E08A838A8128960FB6F894DEBF0FBEB7
:10174000CDBFCF91DF910895DF93CF93CDB7DEB7B3
:101750002D970FB6F894DEBF0FBECDBF8A836B8383
:1017600019828A81843008F087C08B81882321F018
:101770008B81813009F080C08A81282F30E03D873D
:101780002C878C859D858130910571F12C853D8557
:10179000223031052CF48C859D85009769F069C055
:1017A0002C853D8522303105B1F18C859D858330B6
:1017B000910509F447C05DC08B81282F30E03B873D
:1017C0002A878A859B85009759F02A853B85213099
:1017D000310509F053C0EBE3F0E08FEF80834EC09A
:1017E000EBE3F0E010824AC08B81282F30E039878C
:1017F000288788859985009751F02885398521307B
:101800003105E1F5E8E3F0E08FEF808337C0E8E3EE
:10181000F0E0108233C08B81282F30E03F832E838D
:101820008E819F81009751F02E813F8121303105BB
:1018300029F5E5E3F0E08FEF808320C0E5E3F0E0F9
:1018400010821CC08B81282F30E03D832C838C813B
:101850009D81009751F02C813D812130310571F43B
:10186000E2E3F0E08FEF808309C0E2E3F0E0108272
:1018700005C081E0898302C081E0898389812D963A
:101880000FB6F894DEBF0FBECDBFCF91DF910895A4
:10189000DF93CF9300D000D00F92CDB7DEB78A830D
:1018A0006B8319828A81282F30E03D832C838C81C1
:1018B0009D8181309105D1F02C813D81223031050F
:1018C0002CF48C819D81009761F01FC02C813D819B
:1018D0002230310581F08C819D818330910581F02A
:1018E00014C0EBE3F0E08B81808311C0E8E3F0E00B
:1018F0008B8180830CC0E5E3F0E08B81808307C09F
:10190000E2E3F0E08B81808302C081E089838981FA
:101910000F900F900F900F900F90CF91DF9108953F
:10192000DF93CF9300D000D000D0CDB7DEB78A834D
:101930007C836B8319828B819C81009709F43EC064
:101940008A81282F30E03E832D838D819E818130D6
:101950009105E1F02D813E81223031052CF48D81FD
:101960009E81009761F027C02D813E812230310594
:10197000A1F08D819E8183309105B1F01CC0EBE315
:10198000F0E08081EB81FC8180831AC0E8E3F0E025
:101990008081EB81FC81808313C0E5E3F0E08081EE
:1019A000EB81FC8180830CC0E2E3F0E08081EB817D
:1019B000FC81808305C081E0898302C081E0898346
:1019C000898126960FB6F894DEBF0FBECDBFCF91AA
:1019D000DF910895DF93CF930F92CDB7DEB71982D1
:1019E00083E065E041E00E9481080E94C006898191
:1019F0000F90CF91DF9108950F931F93DF93CF93B3
:101A000000D00F92CDB7DEB79B838A8319828A817B
:101A10009B81853B910508F50AE410E08A819B8152
:101A2000CC01A0E0B0E028EE33E040E050E0BC01A3
:101A3000CD010E94DC1EDC01CB0124EB30E040E054
:101A400050E0BC01CD010E94FB1EDA01C9018951A1
:101A50009C4FF8019183808302C081E08983898152
:101A60000F900F900F90CF91DF911F910F910895DC
:101A7000DF93CF930F92CDB7DEB7198283E060E09A
:101A800041E00E94810883E061E041E00E9481081A
:101A900083E064E041E00E94810883E063E041E08C
:101AA0000E94810883E060E041E00E94B40983E085
:101AB00061E041E00E94B40983E064E041E00E94FB
:101AC000B40983E063E041E00E94B40989810F908A
:101AD000CF91DF9108950F931F93DF93CF93CDB7ED
:101AE000DEB7CE57D0400FB6F894DEBF0FBECDBFE5
:101AF000FE01E658FF4F8083FE01E558FF4F40830B
:101B0000518362837383FE01E758FF4F1082FE0109
:101B1000E558FF4F608171818281938120E030E040
:101B200040E055E40E941F02DC01CB018E010B58FE
:101B30001F4FBC01CD0120E030E044EB53E40E9494
:101B40001903DC01CB01F80180839183A283B38365
:101B5000FE01EB58FF4F608171818281938120E00B
:101B600030E040E850E40E941903DC01CB018E0113
:101B70000D581F4FBC01CD010E944900DC01CB0173
:101B8000F80191838083FE01E658FF4F8081813008
:101B900009F00CC3FE01EE58FF4F1082F7C283E03C
:101BA00060E040E00E94B40983E061E041E00E940F
:101BB000B40983E064E041E00E94B40983E063E09B
:101BC00041E00E94B409FE01E359FF4F80E090E03C
:101BD000A0E2B1E480839183A283B3838E0107598D
:101BE0001F4FFE01E359FF4F608171818281938114
:101BF00020E030E04AE753E40E941F02DC01CB0101
:101C0000F80180839183A283B383FE01E759FF4FDC
:101C1000608171818281938120E030E040E85FE360
:101C20000E942504882344F4FE01E959FF4F81E016
:101C300090E09183808364C0FE01E759FF4F60818B
:101C400071818281938120E03FEF4FE757E40E944A
:101C5000C50318160CF043C0FE01E359FF4F608125
:101C600071818281938120E030E040E251E40E9462
:101C70001F02DC01CB018E0109591F4FBC01CD01B0
:101C80000E944900DC01CB01F801918380831FC0D1
:101C9000FE01EB59FF4F89E190E091838083FE01C3
:101CA000EB59FF4F808191810197F1F7FE01EB59CC
:101CB000FF4F91838083DE01A959BF4FFE01E9598F
:101CC000FF4F80819181019711969C938E93FE0125
:101CD000E959FF4F808191810097D1F627C08E018D
:101CE00009591F4FFE01E759FF4F608171818281C1
:101CF00093810E944900DC01CB01F801918380832C
:101D0000DE01AD59BF4FFE01E959FF4F808191813E
:101D10008D939C93FE01ED59FF4F80819181019736
:101D2000F1F7FE01ED59FF4F9183808383E060E07E
:101D300041E00E94B40983E061E040E00E94B40900
:101D400083E064E041E00E94B40983E063E041E0A5
:101D50000E94B409FE01E15AFF4F80E090E0A0E24A
:101D6000B1E480839183A283B3838E01055A1F4F10
:101D7000FE01E15AFF4F608171818281938120E0F1
:101D800030E04AE753E40E941F02DC01CB01F80176
:101D900080839183A283B383FE01E55AFF4F608164
:101DA00071818281938120E030E040E85FE30E940E
:101DB0002504882344F4FE01E75AFF4F81E090E0B8
:101DC0009183808364C0FE01E55AFF4F6081718179
:101DD0008281938120E03FEF4FE757E40E94C503E3
:101DE00018160CF043C0FE01E15AFF4F608171816B
:101DF0008281938120E030E040E251E40E941F02A2
:101E0000DC01CB018E01075A1F4FBC01CD010E949E
:101E10004900DC01CB01F801918380831FC0FE01E2
:101E2000E95AFF4F89E190E091838083FE01E95AEE
:101E3000FF4F808191810197F1F7FE01E95AFF4F31
:101E400091838083DE01A75ABF4FFE01E75AFF4FFF
:101E500080819181019711969C938E93FE01E75AA0
:101E6000FF4F808191810097D1F627C08E01075ADC
:101E70001F4FFE01E55AFF4F60817181828193817E
:101E80000E944900DC01CB01F80191838083DE01CF
:101E9000AB5ABF4FFE01E75AFF4F808191818D936E
:101EA0009C93FE01EB5AFF4F808191810197F1F7DE
:101EB000FE01EB5AFF4F9183808383E060E041E0B5
:101EC0000E94B40983E061E041E00E94B40983E02C
:101ED00064E040E00E94B40983E063E041E00E94D6
:101EE000B409FE01EF5AFF4F80E090E0A0E2B1E4B8
:101EF00080839183A283B3838E01035B1F4FFE0116
:101F0000EF5AFF4F608171818281938120E030E040
:101F10004AE753E40E941F02DC01CB01F8018083F1
:101F20009183A283B383FE01E35BFF4F60817181E4
:101F30008281938120E030E040E85FE30E94250445
:101F4000882344F4FE01E55BFF4F81E090E091833C
:101F5000808364C0FE01E35BFF4F608171818281F9
:101F6000938120E03FEF4FE757E40E94C503181626
:101F70000CF043C0FE01EF5AFF4F608171818281F6
:101F8000938120E030E040E251E40E941F02DC0136
:101F9000CB018E01055B1F4FBC01CD010E944900A2
:101FA000DC01CB01F801918380831FC0FE01E75B58
:101FB000FF4F89E190E091838083FE01E75BFF4F53
:101FC000808191810197F1F7FE01E75BFF4F9183DB
:101FD0008083DE01A55BBF4FFE01E55BFF4F808183
:101FE0009181019711969C938E93FE01E55BFF4FC3
:101FF000808191810097D1F627C08E01055B1F4F2C
:10200000FE01E35BFF4F60817181828193810E94B9
:102010004900DC01CB01F80191838083DE01A95BDB
:10202000BF4FFE01E55BFF4F808191818D939C93B3
:10203000FE01E95BFF4F808191810197F1F7FE017D
:10204000E95BFF4F9183808383E060E041E00E9481
:10205000B40983E061E041E00E94B40983E064E0F8
:1020600041E00E94B40983E063E040E00E94B409CB
:10207000FE01ED5BFF4F80E090E0A0E2B1E48083E1
:102080009183A283B3838E01015C1F4FFE01ED5B40
:10209000FF4F608171818281938120E030E04AE7C7
:1020A00053E40E941F02DC01CB01F801808391837D
:1020B000A283B383FE01FF96608171818281938147
:1020C00020E030E040E85FE30E94250488232CF400
:1020D00081E090E09EAF8DAF46C0FE01FF9660812B
:1020E00071818281938120E03FEF4FE757E40E94A6
:1020F000C503181664F5FE01ED5BFF4F6081718129
:102100008281938120E030E040E251E40E941F028E
:10211000DC01CB01BC01CD010E944900DC01CB01F7
:102120009EAF8DAF0FC089E190E09CAF8BAF8BADC0
:102130009CAD0197F1F79CAF8BAF8DAD9EAD019734
:102140009EAF8DAF8DAD9EAD009769F716C0FE01B5
:10215000FF9660817181828193810E944900DC0138
:10216000CB019EAF8DAF8DAD9EAD9AAF89AF89ADDE
:102170009AAD0197F1F79AAF89AFDE01AE58BF4F24
:10218000FE01EE58FF4F80818F5F8C93FE01EE5869
:10219000FF4F8081282F30E0FE01ED58FF4F8081F6
:1021A00091812817390708F4FACC3CC2FE01E658A1
:1021B000FF4F8081823009F035C2FE01EF58FF4F9A
:1021C000108221C283E060E041E00E94B40983E014
:1021D00061E041E00E94B40983E064E041E00E94D4
:1021E000B40983E063E040E00E94B40980E090E03D
:1021F000A0E2B1E48DAB9EABAFABB8AF6DA97EA949
:102200008FA998AD20E030E04AE753E40E941F0216
:10221000DC01CB0189AB9AABABABBCAB69A97AA9AA
:102220008BA99CA920E030E040E85FE30E942504F0
:1022300088232CF481E090E098AB8FA73FC069A978
:102240007AA98BA99CA920E03FEF4FE757E40E94B1
:10225000C50318164CF56DA97EA98FA998AD20E08D
:1022600030E040E251E40E941F02DC01CB01BC01DE
:10227000CD010E944900DC01CB0198AB8FA70FC0B4
:1022800089E190E09EA78DA78DA59EA50197F1F706
:102290009EA78DA78FA598A9019798AB8FA78FA50B
:1022A00098A9009769F714C069A97AA98BA99CA974
:1022B0000E944900DC01CB0198AB8FA78FA598A99C
:1022C0009CA78BA78BA59CA50197F1F79CA78BA733
:1022D00083E060E041E00E94B40983E061E041E016
:1022E0000E94B40983E064E040E00E94B40983E006
:1022F00063E041E00E94B40980E090E0A0E2B1E434
:102300008FA398A7A9A7BAA76FA178A589A59AA511
:1023100020E030E04AE753E40E941F02DC01CB01D9
:102320008BA39CA3ADA3BEA36BA17CA18DA19EA1F9
:1023300020E030E040E85FE30E94250488232CF48D
:1023400081E090E09AA389A33FC06BA17CA18DA1FD
:102350009EA120E03FEF4FE757E40E94C503181607
:102360004CF56FA178A589A59AA520E030E040E260
:1023700051E40E941F02DC01CB01BC01CD010E948F
:102380004900DC01CB019AA389A30FC089E190E049
:1023900098A38F8F8F8D98A10197F1F798A38F8FB6
:1023A00089A19AA101979AA389A389A19AA10097CB
:1023B00069F714C06BA17CA18DA19EA10E94490068
:1023C000DC01CB019AA389A389A19AA19E8F8D8F4D
:1023D0008D8D9E8D0197F1F79E8F8D8F83E060E04C
:1023E00041E00E94B40983E061E040E00E94B4094A
:1023F00083E064E041E00E94B40983E063E041E0EF
:102400000E94B40980E090E0A0E2B1E4898F9A8F45
:10241000AB8FBC8F698D7A8D8B8D9C8D20E030E0E9
:102420004AE753E40E941F02DC01CB018D8B9E8B97
:10243000AF8BB88F6D897E898F89988D20E030E0D1
:1024400040E85FE30E94250488232CF481E090E0BB
:102450009C8B8B8B3FC06D897E898F89988D20E006
:102460003FEF4FE757E40E94C50318164CF5698DFE
:102470007A8D8B8D9C8D20E030E040E251E40E940B
:102480001F02DC01CB01BC01CD010E944900DC012F
:10249000CB019C8B8B8B0FC089E190E09A8B898B51
:1024A00089899A890197F1F79A8B898B8B899C8905
:1024B00001979C8B8B8B8B899C89009769F714C043
:1024C0006D897E898F89988D0E944900DC01CB013E
:1024D0009C8B8B8B8B899C89988B8F878F85988918
:1024E0000197F1F7988B8F8783E060E040E00E94CE
:1024F000B40983E061E041E00E94B40983E064E054
:1025000041E00E94B40983E063E041E00E94B40925
:1025100080E090E0A0E2B1E48B879C87AD87BE8726
:102520006B857C858D859E8520E030E04AE753E40D
:102530000E941F02DC01CB018F839887A987BA878D
:102540006F81788589859A8520E030E040E85FE3F7
:102550000E94250488232CF481E090E09E838D83E3
:102560003FC06F81788589859A8520E03FEF4FE7EE
:1025700057E40E94C50318164CF56B857C858D8544
:102580009E8520E030E040E251E40E941F02DC0121
:10259000CB01BC01CD010E944900DC01CB019E832F
:1025A0008D830FC089E190E09C838B838B819C811C
:1025B0000197F1F79C838B838D819E8101979E8388
:1025C0008D838D819E81009769F714C06F81788516
:1025D00089859A850E944900DC01CB019E838D8309
:1025E0008D819E819A83898389819A810197F1F7F0
:1025F0009A838983DE01AF58BF4FFE01EF58FF4F2A
:1026000080818F5F8C93FE01EF58FF4F8081282FD0
:1026100030E0FE01ED58FF4F808191812817390786
:1026200008F4D0CDFE01E758FF4F8081C258DF4F3C
:102630000FB6F894DEBF0FBECDBFCF91DF911F91D3
:102640000F910895DF93CF930F92CDB7DEB7198224
:1026500083E060E041E00E94B40983E061E041E092
:102660000E94B40983E064E041E00E94B40983E081
:1026700063E041E00E94B40989810F90CF91DF911E
:102680000895DF93CF930F92CDB7DEB7198281E023
:1026900064E041E00E94810881E066E041E00E9440
:1026A000810881E065E041E00E94810889810F9006
:1026B000CF91DF910895DF93CF9300D0CDB7DEB7F0
:1026C0008A83198281E064E041E00E94B4098A8132
:1026D000813059F481E066E041E00E94B40981E074
:1026E00065E040E00E94B40910C08A81823059F44C
:1026F00081E066E040E00E94B40981E065E041E0ED
:102700000E94B40902C081E0898389810F900F90F3
:10271000CF91DF910895DF93CF930F92CDB7DEB7BE
:10272000198281E064E040E00E94B40981E066E043
:1027300040E00E94B40981E065E040E00E94B409F5
:1027400081E0898389810F90CF91DF910895DF9394
:10275000CF930F92CDB7DEB7198280E060E041E001
:102760000E94810880E061E041E00E94810880E0F1
:1027700062E041E00E94810880E063E041E00E9465
:10278000810880E064E040E00E94810880E065E02C
:1027900040E00E94810880E066E040E00E948108FD
:1027A00080E067E040E00E94810880E060E041E076
:1027B0000E94B40980E061E041E00E94B40980E039
:1027C00062E041E00E94B40980E063E041E00E94E1
:1027D000B40980E064E041E00E94B40980E065E073
:1027E00041E00E94B40980E066E041E00E94B40943
:1027F00080E067E041E00E94B40989810F90CF91A9
:10280000DF910895DF93CF93CDB7DEB765970FB60D
:10281000F894DEBF0FBECDBF9D8B8C8B1A8A1B8AAE
:102820001F868C899D89009709F4F0C0EC89FD8989
:102830008FEF8083198AE5C08989882F90E0FC0199
:10284000ED5CFE4F908180E0692F40E00E94B4096A
:10285000188AC1C08889882F90E0FC01E95CFE4F8E
:1028600090819E012D5E3F4F80E0692FA9010E945B
:10287000E70A8B89882309F0ABC080E090E0A0EAEA
:10288000B1E48B879C87AD87BE876B857C858D8502
:102890009E8520E030E04AE753E40E941F02DC01FD
:1028A000CB018F839887A987BA876F8178858985BF
:1028B0009A8520E030E040E85FE30E942504882309
:1028C0002CF481E090E09E838D833FC06F817885FA
:1028D00089859A8520E03FEF4FE757E40E94C503C2
:1028E00018164CF56B857C858D859E8520E030E043
:1028F00040E251E40E941F02DC01CB01BC01CD018A
:102900000E944900DC01CB019E838D830FC089E1C9
:1029100090E09C838B838B819C810197F1F79C8352
:102920008B838D819E8101979E838D838D819E8176
:10293000009769F714C06F81788589859A850E9410
:102940004900DC01CB019E838D838D819E819A831A
:10295000898389819A810197F1F79A83898388898C
:10296000882F90E0FC01E95CFE4F90819E012D5E76
:102970003F4F80E0692FA9010E94E70A0FC08889B4
:10298000882F90E0FC01E95CFE4F90819E012D5E56
:102990003F4F80E0692FA9010E94E70A8B898823B5
:1029A00071F38989482F50E08889282F30E0CA01C7
:1029B000880F991F880F991F820F931FFC01ED5DEF
:1029C000FE4F8081EC89FD89808381E08F8707C07D
:1029D00088898F5F888B8889843008F43BCF898908
:1029E000882F90E0FC01ED5CFE4F908180E0692F24
:1029F00041E00E94B4098F85813051F089898F5F51
:102A0000898B8989843008F417CF02C081E08A8BD2
:102A10008A8965960FB6F894DEBF0FBECDBFCF9101
:102A2000DF910895DF93CF93CDB7DEB7C254D04086
:102A30000FB6F894DEBF0FBECDBFFE01FF9680E05B
:102A400090E0ACE0B2E480839183A283B383FE0183
:102A5000FF96608171818281938120E030E04AE7B6
:102A600053E40E941F02DC01CB018BAF9CAFADAFE2
:102A7000BEAF6BAD7CAD8DAD9EAD20E030E040E8EB
:102A80005FE30E94250488232CF481E090E09AAF54
:102A900089AF41C06BAD7CAD8DAD9EAD20E03FEF09
:102AA0004FE757E40E94C50318165CF5FE01FF9638
:102AB000608171818281938120E030E040E251E4C5
:102AC0000E941F02DC01CB01BC01CD010E94490024
:102AD000DC01CB019AAF89AF0FC089E190E098AFDC
:102AE0008FAB8FA998AD0197F1F798AF8FAB89ADF8
:102AF0009AAD01979AAF89AF89AD9AAD009769F702
:102B000014C06BAD7CAD8DAD9EAD0E944900DC0163
:102B1000CB019AAF89AF89AD9AAD9EAB8DAB8DA934
:102B20009EA90197F1F79EAB8DAB88E30E944E17EB
:102B300080E090E0A0E2B2E489AB9AABABABBCAB77
:102B400069A97AA98BA99CA92BEA3AEA4AEA5EE329
:102B50000E941F02DC01CB018DA79EA7AFA7B8ABD7
:102B60006DA57EA58FA598A920E030E040E85FE341
:102B70000E94250488231CF481E08CA791C06DA5D8
:102B80007EA58FA598A920E030E04FE753E40E948E
:102B9000C50318160CF07BC069A97AA98BA99CA95A
:102BA00020E030E04AE754E40E941903DC01CB0145
:102BB00088A799A7AAA7BBA768A579A58AA59BA559
:102BC00020E030E04AE753E40E941F02DC01CB0121
:102BD0008CA39DA3AEA3BFA36CA17DA18EA19FA139
:102BE00020E030E040E85FE30E94250488232CF4D5
:102BF00081E090E09BA38AA33FC06CA17DA18EA140
:102C00009FA120E03FEF4FE757E40E94C50318164D
:102C10004CF568A579A58AA59BA520E030E040E2A7
:102C200051E40E941F02DC01CB01BC01CD010E94D6
:102C30004900DC01CB019BA38AA30FC089E190E08E
:102C400099A388A388A199A10197F1F799A388A3D3
:102C50008AA19BA101979BA38AA38AA19BA100970C
:102C600069F724C06CA17DA18EA19FA10E9449009B
:102C7000DC01CB019BA38AA38AA19BA19F8F8E8F8E
:102C80008E8D9F8D0197F1F79F8F8E8F0FC06DA551
:102C90007EA58FA598A90E944900DC01CB018CA7D5
:102CA0008CA58D8F8D8D8A95F1F78D8F8FE00E9489
:102CB0004E1780E090E0A0E2B2E4898F9A8FAB8F4C
:102CC000BC8F698D7A8D8B8D9C8D20E030E04AE73A
:102CD00053E40E941F02DC01CB018D8B9E8BAF8BD6
:102CE000B88F6D897E898F89988D20E030E040E82B
:102CF0005FE30E94250488232CF481E090E09C8B04
:102D00008B8B3FC06D897E898F89988D20E03FEF46
:102D10004FE757E40E94C50318164CF5698D7A8D6C
:102D20008B8D9C8D20E030E040E251E40E941F0238
:102D3000DC01CB01BC01CD010E944900DC01CB01CB
:102D40009C8B8B8B0FC089E190E09A8B898B898952
:102D50009A890197F1F79A8B898B8B899C890197C6
:102D60009C8B8B8B8B899C89009769F714C06D892C
:102D70007E898F89988D0E944900DC01CB019C8B54
:102D80008B8B8B899C89988B8F878F8598890197EE
:102D9000F1F7988B8F8781E00E944E1780E090E0DA
:102DA000A0E8BFE38B879C87AD87BE876B857C855A
:102DB0008D859E8520E030E04AE753E40E941F02A3
:102DC000DC01CB018F839887A987BA876F817885CB
:102DD00089859A8520E030E040E85FE30E94250481
:102DE00088232CF481E090E09E838D833FC06F8127
:102DF000788589859A8520E03FEF4FE757E40E9468
:102E0000C50318164CF56B857C858D859E8520E065
:102E100030E040E251E40E941F02DC01CB01BC0122
:102E2000CD010E944900DC01CB019E838D830FC040
:102E300089E190E09C838B838B819C810197F1F7E2
:102E40009C838B838D819E8101979E838D838D8151
:102E50009E81009769F714C06F81788589859A856E
:102E60000E944900DC01CB019E838D838D819E8170
:102E70009A83898389819A810197F1F79A8389835B
:102E800086E00E944E1780E0CE5BDF4F0FB6F894CD
:102E9000DEBF0FBECDBFCF91DF910895DF93CF93FB
:102EA000CDB7DEB769970FB6F894DEBF0FBECDBFC2
:102EB000898F81E060E040E00E94B40981E061E038
:102EC00040E00E94B40982E0698D0E94480C81E0D4
:102ED00062E041E00E94B40980E090E0A0E8BFE336
:102EE0008D8B9E8BAF8BB88F6D897E898F89988DE6
:102EF0002BEA3AEA4AEA5EE30E941F02DC01CB01B8
:102F0000898B9A8BAB8BBC8B69897A898B899C89DD
:102F100020E030E040E85FE30E94250488231CF4B1
:102F200081E0888B91C069897A898B899C8920E0AE
:102F300030E04FE753E40E94C50318160CF07BC045
:102F40006D897E898F89988D20E030E04AE754E4CE
:102F50000E941903DC01CB018C879D87AE87BF8758
:102F60006C857D858E859F8520E030E04AE753E4BF
:102F70000E941F02DC01CB0188879987AA87BB8743
:102F8000688579858A859B8520E030E040E85FE3AD
:102F90000E94250488232CF481E090E09F838E8397
:102FA0003FC0688579858A859B8520E03FEF4FE7A4
:102FB00057E40E94C50318164CF56C857D858E85F7
:102FC0009F8520E030E040E251E40E941F02DC01D6
:102FD000CB01BC01CD010E944900DC01CB019F83E4
:102FE0008E830FC089E190E09D838C838C819D81CD
:102FF0000197F1F79D838C838E819F8101979F8339
:103000008E838E819F81009769F724C068857985BA
:103010008A859B850E944900DC01CB019F838E83BA
:103020008E819F819B838A838A819B810197F1F79F
:103030009B838A830FC069897A898B899C890E94C6
:103040004900DC01CB01888B8889898389818A9535
:10305000F1F7898381E062E040E00E94B40980E0FA
:1030600069960FB6F894DEBF0FBECDBFCF91DF914A
:103070000895DF93CF93CDB7DEB769970FB6F89475
:10308000DEBF0FBECDBF898F81E060E041E00E94CE
:10309000B40981E061E040E00E94B40982E0698DFA
:1030A0000E94480C81E062E041E00E94B40980E0A7
:1030B00090E0A0E8BFE38D8B9E8BAF8BB88F6D89BE
:1030C0007E898F89988D2BEA3AEA4AEA5EE30E946C
:1030D0001F02DC01CB01898B9A8BAB8BBC8B69897E
:1030E0007A898B899C8920E030E040E85FE30E9488
:1030F000250488231CF481E0888B91C069897A8932
:103100008B899C8920E030E04FE753E40E94C5039F
:1031100018160CF07BC06D897E898F89988D20E010
:1031200030E04AE754E40E941903DC01CB018C87AC
:103130009D87AE87BF876C857D858E859F8520E0C6
:1031400030E04AE753E40E941F02DC01CB0188878C
:103150009987AA87BB87688579858A859B8520E0C2
:1031600030E040E85FE30E94250488232CF481E0EE
:1031700090E09F838E833FC0688579858A859B8593
:1031800020E03FEF4FE757E40E94C50318164CF5C7
:103190006C857D858E859F8520E030E040E251E49E
:1031A0000E941F02DC01CB01BC01CD010E9449003D
:1031B000DC01CB019F838E830FC089E190E09D836A
:1031C0008C838C819D810197F1F79D838C838E8107
:1031D0009F8101979F838E838E819F81009769F7DE
:1031E00024C0688579858A859B850E944900DC0119
:1031F000CB019F838E838E819F819B838A838A816B
:103200009B810197F1F79B838A830FC069897A8933
:103210008B899C890E944900DC01CB01888B8889BD
:10322000898389818A95F1F7898381E062E040E0B2
:103230000E94B40980E069960FB6F894DEBF0FBE15
:10324000CDBFCF91DF910895DF93CF9300D000D011
:103250000F92CDB7DEB789836A838A818832F8F40A
:103260008981282F30E03D832C838C819D818130A2
:10327000910531F02C813D812230310531F00AC0B9
:103280008A8180580E944E1708C08A8180540E940B
:103290004E1703C031E03B8304C01B8202C081E0B3
:1032A0008B838B810F900F900F900F900F90CF9189
:1032B000DF910895DF93CF9300D00F92CDB7DEB7A3
:1032C0009B838A830EC08981282F30E08A819B816D
:1032D000FC01E20FF31F80810E94391889818F5F02
:1032E00089838981282F30E08A819B81FC01E20F4C
:1032F000F31F8081882339F780E00F900F900F90A3
:10330000CF91DF910895DF93CF93CDB7DEB72E979E
:103310000FB6F894DEBF0FBECDBF81E00E944E17FE
:1033200080E090E0A0E8BFE38B879C87AD87BE87F5
:103330006B857C858D859E8520E030E04AE753E4EF
:103340000E941F02DC01CB018F839887A987BA876F
:103350006F81788589859A8520E030E040E85FE3D9
:103360000E94250488232CF481E090E09E838D83C5
:103370003FC06F81788589859A8520E03FEF4FE7D0
:1033800057E40E94C50318164CF56B857C858D8526
:103390009E8520E030E040E251E40E941F02DC0103
:1033A000CB01BC01CD010E944900DC01CB019E8311
:1033B0008D830FC089E190E09C838B838B819C81FE
:1033C0000197F1F79C838B838D819E8101979E836A
:1033D0008D838D819E81009769F714C06F817885F8
:1033E00089859A850E944900DC01CB019E838D83EB
:1033F0008D819E819A83898389819A810197F1F7D2
:103400009A83898380E02E960FB6F894DEBF0FBEB4
:10341000CDBFCF91DF910895DF93CF9300D000D03F
:103420000F92CDB7DEB78A837C836B838B819C81BF
:10343000009741F18A81883028F58A81882F90E0B1
:103440000896880F991F880F991F880F991F0E944F
:103450004E1719820EC08981282F30E08B819C8104
:10346000FC01E20FF31F80810E94391889818F5F70
:1034700089838981883078F381E060E00E94241993
:103480001D8202C081E08D838D810F900F900F907F
:103490000F900F90CF91DF9108950F931F93DF93BB
:1034A000CF93CDB7DEB760970FB6F894DEBF0FBEEF
:1034B000CDBF6D877E878F87988B1A8219828D8505
:1034C0009E85AF85B8890097A105B10591F580E388
:1034D0000E9439184DC08A81082F10E08D859E8585
:1034E000AF85B8892AE030E040E050E0BC01CD0172
:1034F0000E94FB1EDC01CB01282F205DCE0103962C
:10350000FC01E00FF11F20838D859E85AF85B88972
:103510002AE030E040E050E0BC01CD010E94FB1EFB
:10352000DA01C9018D879E87AF87B88B8A818F5F4B
:103530008A838D859E85AF85B8890097A105B105E1
:1035400051F68A81898311C08981882F90E09C017E
:1035500021503040CE010396FC01E20FF31F808121
:103560000E9439188981815089838981882361F774
:1035700081E060960FB6F894DEBF0FBECDBFCF914D
:10358000DF911F910F910895DF93CF93CDB7DEB7F1
:10359000C654D0400FB6F894DEBF0FBECDBF1BAEF1
:1035A000CE01CD9624969FAF8EAF2497EEEBF0E040
:1035B0002696FFAFEEAF2697F5E02796FFAF279749
:1035C0002696EEADFFAD2697008026968EAD9FAD78
:1035D0002697019626969FAF8EAF26972496EEAD3E
:1035E000FFAD2497008224968EAD9FAD249701965F
:1035F00024969FAF8EAF249727969FAD2797915023
:1036000027969FAF27972796EFAD2797EE23C1F612
:1036100019AE0E945F080E9412150E94A7130E9413
:10362000411381E060E00E94241980E690E00E944E
:103630005A1980E090E0AAE7B4E48DAB9EABAFAB43
:10364000B8AF6DA97EA98FA998AD20E030E04AE718
:1036500053E40E941F02DC01CB0189AB9AABABABF8
:10366000BCAB69A97AA98BA99CA920E030E040E80D
:103670005FE30E94250488232CF481E090E098AB5E
:103680008FA73FC069A97AA98BA99CA920E03FEF29
:103690004FE757E40E94C50318164CF56DA97EA9A3
:1036A0008FA998AD20E030E040E251E40E941F0273
:1036B000DC01CB01BC01CD010E944900DC01CB0142
:1036C00098AB8FA70FC089E190E09EA78DA78DA52D
:1036D0009EA50197F1F79EA78DA78FA598A90197A1
:1036E00098AB8FA78FA598A9009769F714C069A90F
:1036F0007AA98BA99CA90E944900DC01CB0198AB57
:103700008FA78FA598A99CA78BA78BA59CA5019790
:10371000F1F79CA78BA70E948319CE01CC960E943B
:1037200002148CAD8F3F89F08AE20E9439188AAD6D
:10373000882F90E02CADFC01EB5BFE4F20838AAD1F
:103740008F5F8AAF8BAD8F5F8BAF8BAD843029F7E6
:103750001AAE9EC18AAD882F90E0FC01EB5BFE4F54
:1037600040818AAD282F30E0CE01CD96FC01E20FDA
:10377000F31F8081481709F07FC081E060E00E945C
:1037800024198FE690E00E945A1980E090E0AAE7A1
:10379000B4E48FA398A7A9A7BAA76FA178A589A514
:1037A0009AA520E030E04AE753E40E941F02DC01C2
:1037B000CB018BA39CA3ADA3BEA36BA17CA18DA1C8
:1037C0009EA120E030E040E85FE30E9425048823CA
:1037D0002CF481E090E09AA389A33FC06BA17CA167
:1037E0008DA19EA120E03FEF4FE757E40E94C50363
:1037F00018164CF56FA178A589A59AA520E030E0B0
:1038000040E251E40E941F02DC01CB01BC01CD016A
:103810000E944900DC01CB019AA389A30FC089E172
:1038200090E098A38F8F8F8D98A10197F1F798A3BF
:103830008F8F89A19AA101979AA389A389A19AA19F
:10384000009769F714C06BA17CA18DA19EA10E9475
:103850004900DC01CB019AA389A389A19AA19E8F7B
:103860008D8F8D8D9E8D0197F1F79E8F8D8F0E948C
:1038700083190E944D1D51CF81E060E00E94241900
:1038800080E890E00E945A1982E060E00E942419CA
:1038900080E990E00E945A1980E090E0AAE7B4E441
:1038A000898F9A8FAB8FBC8F698D7A8D8B8D9C8D14
:1038B00020E030E04AE753E40E941F02DC01CB0124
:1038C0008D8B9E8BAF8BB88F6D897E898F89988DFC
:1038D00020E030E040E85FE30E94250488232CF4D8
:1038E00081E090E09C8B8B8B3FC06D897E898F89B6
:1038F000988D20E03FEF4FE757E40E94C50318166C
:103900004CF5698D7A8D8B8D9C8D20E030E040E206
:1039100051E40E941F02DC01CB01BC01CD010E94D9
:103920004900DC01CB019C8B8B8B0FC089E190E0BF
:103930009A8B898B89899A890197F1F79A8B898B60
:103940008B899C8901979C8B8B8B8B899C89009799
:1039500069F714C06D897E898F89988D0E9449000E
:10396000DC01CB019C8B8B8B8B899C89988B8F87FF
:103970008F8598890197F1F7988B8F870E9483191B
:103980000E94C41A89AD8F5F89AF89AD833009F079
:103990007CC00E94831981EA90E00E945A1980E05D
:1039A00090E6AAE6B7E48B879C87AD87BE876B85D8
:1039B0007C858D859E8520E030E04AE753E40E94B7
:1039C0001F02DC01CB018F839887A987BA876F819B
:1039D000788589859A8520E030E040E85FE30E94A1
:1039E000250488232CF481E090E09E838D833FC0E2
:1039F0006F81788589859A8520E03FEF4FE757E40E
:103A00000E94C50318164CF56B857C858D859E85B7
:103A100020E030E040E251E40E941F02DC01CB01D3
:103A2000BC01CD010E944900DC01CB019E838D8346
:103A30000FC089E190E09C838B838B819C810197EF
:103A4000F1F79C838B838D819E8101979E838D836B
:103A50008D819E81009769F714C06F817885898573
:103A60009A850E944900DC01CB019E838D838D8164
:103A70009E819A83898389819A810197F1F79A833C
:103A800089830E94831919AE48CE8AAD8F5F8AAFB1
:103A90008AAD853008F45ECE40CEDF93CF930F928F
:103AA000CDB7DEB70E94831981E060E00E9424193F
:103AB00083EC90E00E945A1982E060E00E94241991
:103AC00089EC90E00E945A1981E066E00E94241976
:103AD00084ED90E00E945A19CE0101960E940214D2
:103AE00089818F3FC9F38981813329F40E94831929
:103AF0000E94DB1D0FC08981823329F40E94831943
:103B00000E948E1D07C08981833331F70E9483197B
:103B10000E94861E0F90CF91DF910895DF93CF937F
:103B2000CDB7DEB70E94831981E060E00E942419BE
:103B30008DED90E00E945A1981E065E00E94241901
:103B400082EE90E00E945A1982E060E00E942419FF
:103B500088EE90E00E945A1984E491E00E940214D9
:103B6000809144018F3FC1F380914401813351F42E
:103B70000E9483190E94380D81E0809344010E94C5
:103B8000201E16C080914401823351F40E94831993
:103B90000E94380D82E0809344010E94201E08C0DC
:103BA000809144018333C1F60E9483190E9422133D
:103BB000CF91DF910895DF93CF930F92CDB7DEB70A
:103BC0000E9441130E94831981E060E00E94241941
:103BD0008DED90E00E945A1981E065E00E94241961
:103BE00082EE90E00E945A1982E060E00E9424195F
:103BF00088EE90E00E945A19CE0101960E940214AC
:103C000089818F3FC9F38981813331F40E948319FF
:103C100081E00E945B1310C08981823331F40E94DD
:103C2000831982E00E945B1307C08981833321F7E7
:103C30000E9483190E948B130F90CF91DF910895FA
:103C4000DF93CF930F92CDB7DEB70E94831981E047
:103C500060E00E9424198FEE90E00E945A1981E0E2
:103C600067E00E94241984EF90E00E945A1982E0D4
:103C700060E00E9424198AEF90E00E945A1982E0C5
:103C800067E00E94241980E091E00E945A19CE0159
:103C900001960E94021489818F3FC9F38981813383
:103CA00059F40E94380D8091440140E050E064EBEB
:103CB00072E40E946B0DEBCF8981823359F40E942C
:103CC000380D8091440140E050E064E373E40E94C9
:103CD0006B0DDDCF8981833359F40E94380D8091BB
:103CE000440140E050E067E873E40E946B0DCFCFE1
:103CF0008981843361F60E94380D8091440140E04F
:103D000050E064EB73E40E946B0DC1CFDF93CF935F
:103D10000F92CDB7DEB719820E94EA0C0E94831978
:103D200081E060E00E94241986E091E00E945A1927
:103D300081E067E00E9424198BE091E00E945A190B
:103D400082E060E00E94241980E191E00E945A190B
:103D500082E067E00E94241985E191E00E945A19EF
:103D6000CE0101960E94021489818F3FC9F3898197
:103D7000813331F40E9483198DE20E94FC0C18C03B
:103D80008981823331F40E9483198CE30E94FC0CF8
:103D90000FC08981833331F40E9483198AE50E9420
:103DA000FC0C06C089818433D9F684EB0E94FC0C9C
:103DB0000F90CF91DF910895629FD001739FF00122
:103DC000829FE00DF11D649FE00DF11D929FF00DAB
:103DD000839FF00D749FF00D659FF00D9927729FE2
:103DE000B00DE11DF91F639FB00DE11DF91FBD016D
:103DF000CF0111240895A1E21A2EAA1BBB1BFD01BD
:103E00000DC0AA1FBB1FEE1FFF1FA217B307E407B9
:103E1000F50720F0A21BB30BE40BF50B661F771F11
:103E2000881F991F1A9469F76095709580959095F1
:103E30009B01AC01BD01CF0108952F923F924F929B
:103E40005F926F927F928F929F92AF92BF92CF922A
:103E5000DF92EF92FF920F931F93CF93DF93CDB733
:103E6000DEB7CA1BDB0B0FB6F894DEBF0FBECDBFAB
:103E700009942A88398848885F846E847D848C847C
:103E80009B84AA84B984C884DF80EE80FD800C8185
:103E90001B81AA81B981CE0FD11D0FB6F894DEBF68
:0C3EA0000FBECDBFED010895F894FFCFD8
:103EAC00456E7465722050617373776F7264004352
:103EBC006F72726563742050617373776F726400F4
:103ECC0077726F6E672050617373776F72642C001A
:103EDC00706C656173652074727920616761696EBD
:103EEC0000706C656173652074727920616761691B
:103EFC006E2061667465722031206D696E00303001
:103F0C00303000312D44432000322D535445505055
:103F1C0045522000332D534552564F2000312D432E
:103F2C005700322D43435700332D53544F5000311B
:103F3C002D393000322D31383000332D32373000EE
:103F4C00342D33363000312D343500322D363000DF
:103F5C00332D393000342D31383000000000000092
:103F6C000000003738392F3435362A3132332D637F
:0C3F7C00303D2B00010203040506070085
:00000001FF
